:100000000C9434000C9446000C9446000C9446006A
:100010000C9446000C9446000C9446000C94460048
:100020000C9446000C9446000C9446000C94460038
:100030000C9446000C9446000C9446000C94460028
:100040000C9446000C9446000C9478000C944600E6
:100050000C9469000C9446000C9446000C944600E5
:100060000C9446000C94460011241FBECFEFD8E03C
:10007000DEBFCDBF21E0A0E0B1E001C01D92A13004
:10008000B207E1F70E9448000C9488000C9400002D
:100090008FEF84B915B888E48093C60087E690E0B6
:1000A0009093C5008093C4001092C00088ED8093A7
:1000B000C10086E08093C20078949FEF8091000198
:1000C000813409F495B9809100018234B9F715B8EB
:1000D000F5CF1F920F920FB60F9211248F9387E6E0
:1000E0008093C6008F910F900FBE0F901F901895B0
:1000F0001F920F920FB60F9211248F938091C6001A
:10010000809300018F910F900FBE0F901F90189554
:04011000F894FFCF91
:00000001FF
